:1000000000308A00FE290000FF00030E8301A100DA
:100010007F08A0000A08A8008A01A00E0408A20018
:100020007708A3007808A4007908A5007A08A6003C
:100030007B08A700831383128B1E20280B193328FB
:10004000220884002308F7002408F8002508F90096
:100050002608FA002708FB0028088A00210E8300E2
:10006000FF0E7F0E0900B2308100AE1C3E28AD08A5
:1000700003193C28AD033E282E14AE10AC0803191A
:100080004328AC03A6280A30AC002F1C7628AF1BEF
:100090006D28AF172A0803195428013A03195C2860
:1000A000033A031964286C28E030650005116500E7
:1000B0008515650005166C28E0306500051565009E
:1000C0008511650005166C28E03065000515650092
:1000D0008515650005126C287528E030650005154A
:1000E0006500851565000516AF13A628AF1C84288A
:1000F000AF1B7F28AF17E030650085108328E03004
:1001000065008514AF13A628290803198E28013A23
:1001100003199628033A03199E28A628E0306500A3
:1001200005116500851565000516A628E0306500F7
:1001300005156500851165000516A628E0306500E7
:1001400005156500851565000512A6280B118A1195
:10015000202834308400831300080319BD2801309F
:10016000F800F701F70BB228F80BB1284A30F70076
:10017000F70BB828BB28800BAF280034CF306600BF
:10018000970183168113E030650083120510CF308C
:100190006600861266000612E03065008510650074
:1001A000051165008511650005120230B200FA30B4
:1001B000B400A920B20BD728E03065008514650093
:1001C00005156500851565000516A901AB01AF0190
:1001D000AC01AD012E10AE1083169B019C131C14B4
:1001E0001A088312AB002B0FF828AB01A9010029D4
:1001F000013083169B009C131C141A088312A9005B
:100200002908AA0083160108C03907388100B230D6
:10021000831281008B16C0308B04052A2908003A0E
:1002200003191929013A03192229033A031932291A
:100230003B29E03065000514CF30660006126600E9
:1002400086123B29E030650005102B1C2B29CF308E
:10025000660006122E29CF3066000616CF306600E3
:1002600086123B29E03065000510CF30660006128B
:10027000660086163B290034B301CF306600061CA9
:100280004C29CF306600861C4C29CF306600061DF5
:100290004C290030F80070296430B400A920CF3018
:1002A0006600061C5B29CF306600861C5B29CF30B8
:1002B000660006196B29CF306600861C3314CF30D8
:1002C0006600061DB314CF306600061C331564307B
:1002D000B400A9204F296430B400A9203308F800E5
:1002E00000340B138B138B1B72293308AF00C03003
:1002F0008B040034330883169B009C131C141A08CB
:100300008312B5003408350203199E293308831679
:100310009B008312340883169A001C1583120B0865
:10032000F7008B13831655309D00AA309D009C1456
:100330009C1898291C11770883128B040034B30190
:100340002B08B4007A210130B3002908B4007A21C7
:1003500000340230B3007121CF3066008612E030E5
:1003600065000510CF3066000612E0306500851587
:1003700065000515650005163C217808B2002B1CA8
:10038000C529E03065008511C829E0306500851574
:100390003208013A0319D029033A0319D229D42982
:1003A0002B10D4292B14D4293208043C031DBC295A
:1003B000B30171219F212C2ACF306600861DF329BD
:1003C0002E18EF29AE18EE290B138B138B1BE52982
:1003D0000F30AD00AE142E10C0308B04F229013066
:1003E000F800FD29FB290B138B138B1BF429AE108E
:1003F0002E10C0308B040030F800332A84018313A0
:100400001F30830507309F00BE280E213C2178084D
:10041000B00001303002FC3E03182E2A043E502A60
:100420000130B3007121AA08031D192A0230AA0065
:100430001A2AAA032E2A0130B3007121AA0A2A0817
:10044000023C031CAA012E2AB30171212A08A9002B
:100450009F210E212E2AA9290E212E2A2B1C402A4B
:10046000290B402ADC29311078183114311C3C2A20
:10047000CF30660006163F2ACF3066000612452AA6
:10048000CF306600311086193114311C4B2AE03010
:10049000650085104E2AE03065008514062A630049
:1004A0000A108A140A118207102A1B2A2B2A242ACE
:02400E00091E89
:00000001FF
;PIC16F628A
