:1000000000308A00F4290000831A0A289100030EA8
:1000100092000F2883129100030E920092140A0896
:1000200099008A018313910E040893000C08940030
:100030000D0895000E0896000F089700100898000C
:1000400083128B1E25280B193A28130884001408E4
:100050008C0015088D0016088E0017088F001808F0
:10006000900019088A00120E83008312110E921854
:1000700083160900B23081009F1C45289E08031991
:1000800043289E0345281F149F109D0803194A28E2
:100090009D03AD280A309D00201C7D28A01B7428DC
:1000A000A0171B0803195B28013A03196328033AB8
:1000B00003196B287328E03065000511650085156C
:1000C000650005167328E03065000515650085118B
:1000D000650005167328E030650005156500851577
:1000E0006500051273287C28E03065000515650061
:1000F000851565000516A013AD28A01C8B28A01B34
:100100008628A017E030650085108A28E030650059
:100110008514A013AD281A0803199528013A03196C
:100120009D28033A0319A528AD28E0306500051184
:100130006500851565000516AD28E03065000515DC
:100140006500851165000516AD28E03065000515D0
:100150006500851565000512AD280B118A1125284B
:100160002530840000080319C32801308D008C015C
:100170008C0BB8288D0BB7284A308C008C0BBE280E
:10018000C128800BB528003483168113E030650048
:1001900083120510CF306600861266000612E0302A
:1001A0006500851065000511650085116500051263
:1001B0000230A300FA30A500B020A30BDA28E0300B
:1001C0006500851465000515650085156500051633
:1001D0009A019C01A0019D019E011F109F108901A1
:1001E00083160814831208089C001C0FFA289C012F
:1001F0009A01012901308900831608148312080826
:100200009A001A089B0083160108C039073881003C
:10021000B230831281008B168B17F8291A08003A26
:1002200003191929013A03192229033A031932291A
:100230003B29E03065000514CF30660006126600E9
:1002400086123B29E030650005101C1C2B29CF309D
:10025000660006122E29CF3066000616CF306600E3
:1002600086123B29E03065000510CF30660006128B
:10027000660086163B290034A401CF306600061CB8
:100280004C29CF306600861C4C29CF306600061DF5
:100290004C2900308D0070296430A500B020CF308B
:1002A0006600061C5B29CF306600861C5B29CF30B8
:1002B000660006196B29CF306600861C2414CF30E7
:1002C0006600061DA414CF306600061C2415643099
:1002D000A500B0204F296430A500B02024088D006F
:1002E00000348B138B1B71292408A0008B1700345A
:1002F000240889008316081483120808A60025081C
:1003000026020319982924088900250888000B086B
:100310008C008B138316081555308900AA3089008C
:10032000881488189129081183120C088C1B8B00E3
:100330000034A4011C08A50078210130A4001A088B
:10034000A500782100340230A4007121CF3066006E
:100350008612E03065000510CF3066000612E030EE
:100360006500851565000515650005163C210D081D
:10037000A3001C1CBF29E03065008511C229E030B4
:10038000650085152308013A0319CA29033A0319A0
:10039000CC29CE291C10CE291C14CE292308043CBC
:1003A000031DB629A401712199211F2ACF306600AF
:1003B000861DEB291F18E7299F18E6298B138B1B35
:1003C000DE290F309E009F141F108B17EA29013081
:1003D0008D00F329F1298B138B1BEB299F101F1024
:1003E0008B1700308D00262A84011F308305C42816
:1003F0000E213C210D08A10001302102FC3E031812
:10040000212A043E432A0130A40071219B08031DC8
:100410000C2A02309B000D2A9B03212A0130A400E4
:1004200071219B0A1B08023C031C9B01212AA40189
:1004300071211B089A0099210E21212AA3290E213E
:10044000212A1C1C332A1A0B332AD62922100D18F4
:100450002214221C2F2ACF3066000616322ACF30F3
:1004600066000612382ACF30660022108619221440
:10047000221C3E2AE03065008510412AE0306500EC
:100480008514F92963000A108A140A118207032AC5
:060490000E2A1E2A172AA5
:02400E00F93F78
:00000001FF
;PIC16F84A
